:100000000C945D000C9485000C9485000C94850084
:100010000C9485000C9485000C9485000C9485004C
:100020000C9485000C9485000C9485000C9485003C
:100030000C9485000C9485000C9485000C9485002C
:100040000C9458060C9485000C9418060C94F20538
:100050000C9485000C9485000C9485000C9485000C
:100060000C9485000C9485000000000024002700FB
:100070002A0000000000250028002B0004040404CE
:100080000404040402020202020203030303030342
:10009000010204081020408001020408102001021F
:1000A00004081020000000080002010000030407FB
:1000B0000000000000000000F00911241FBECFEF77
:1000C000D8E0DEBFCDBF11E0A0E0B1E0EAE9F4E1A5
:1000D00002C005900D92AA31B107D9F723E0AAE139
:1000E000B1E001C01D92A239B207E1F710E0CDE501
:1000F000D0E004C02197FE010E94450ACC35D1070B
:10010000C9F70E94A2060C944B0A0C940000AF920F
:10011000BF92CF92DF92EF92FF920F931F93CF93F4
:10012000DF936C017B018B01040F151FEB015E0156
:10013000AE18BF08C017D10759F06991D601ED91EB
:10014000FC910190F081E02DC6010995892B79F78A
:10015000C501DF91CF911F910F91FF90EF90DF903C
:10016000CF90BF90AF900895FC01538D448D252F03
:1001700030E0842F90E0821B930B541710F0CF9641
:10018000089501970895FC01918D828D9817A9F02B
:10019000A28DAE0FBF2FB11D5D968C91228D2F5F6A
:1001A00091E02A3F08F490E0392F330F330F931B6F
:1001B000990F291B228F90E008958FEF9FEF0895EC
:1001C000FC01918D828D981731F0828DE80FF11D21
:1001D000858D90E008958FEF9FEF0895FC01918D3C
:1001E000228D892F90E086509F4F821B91096AEFE4
:1001F00070E00E941D0A08958BE392E00E94EE00D9
:1002000021E0892B09F420E0822F089580E090E01E
:10021000892B29F00E94FC0081110C9400000895A4
:10022000FC01A48DA80FB92FB11DA95EBE4F2C9162
:10023000848D90E001968F739927848FA689B78962
:100240002C93A089B1898C91837080648C93938D59
:10025000848D981306C00288F389E02D80818F7DFC
:1002600080830895EF92FF920F931F93CF93DF93B4
:10027000EC0181E0888F9B8D8C8D98131AC0E889E2
:10028000F989808185FF15C09FB7F894EE89FF89B1
:100290006083E889F98980818370806480839FBF4F
:1002A00081E090E0DF91CF911F910F91FF90EF904F
:1002B0000895F62E0B8D10E00F5F1F4F0F7311275F
:1002C000E02E8C8D8E110CC00FB607FCFACFE8899A
:1002D000F989808185FFF5CFCE010E941001F1CF11
:1002E000EB8DEC0FFD2FF11DE95EFE4FF0829FB705
:1002F000F8940B8FEA89FB8980818062CFCF682FC9
:100300008BE392E00C943201CF93DF93EC01888D64
:100310008823B9F0AA89BB89E889F9898C9185FD80
:1003200003C0808186FD0DC00FB607FCF7CF8C910E
:1003300085FFF2CF808185FFEDCFCE010E941001B5
:10034000E9CFDF91CF91089590E0FC01EC55FF4F8C
:100350002491FC01E057FF4F3491FC01E458FF4F1A
:10036000E491EE23C9F0222339F0233001F1A8F4FF
:10037000213019F1223029F1F0E0EE0FFF1FEE5885
:10038000FF4FA591B4918FB7F894EC91611126C0FD
:1003900030953E233C938FBF08952730A9F0283035
:1003A000C9F0243049F7809180008F7D03C080918F
:1003B00080008F7780938000DFCF84B58F7784BDF6
:1003C000DBCF84B58F7DFBCF8091B0008F7780939A
:1003D000B000D2CF8091B0008F7DF9CF3E2BDACF25
:1003E0003FB7F89480911F0190912001A0912101C5
:1003F000B091220126B5A89B05C02F3F19F00196A8
:10040000A11DB11D3FBFBA2FA92F982F8827BC016E
:10041000CD01620F711D811D911D42E0660F771F96
:10042000881F991F4A95D1F708958F929F92AF9296
:10043000BF92CF92DF92EF92FF924B015C010E943C
:10044000F0016B017C010E94F0016C197D098E099D
:100450009F09683E734081059105A8F321E0821A47
:100460009108A108B10888EEC80E83E0D81EE11CEF
:10047000F11C81149104A104B10429F7FF90EF90BD
:10048000DF90CF90BF90AF909F908F900895CF93C3
:10049000DF931F92CDB7DEB72C9A198299819817F6
:1004A000F0F42D98000000000000000000000000A3
:1004B0000000000000000000000000002D9A000075
:1004C000000000000000000000000000000000002C
:1004D00000000000000099819F5F9983DFCF0F909B
:1004E000DF91CF910895CF93DF9300D0CDB7DEB7E2
:1004F0001A82882309F427C02D980000000000000C
:1005000000000000000000000000000000000000EB
:1005100000002C9800000000000000000000000017
:100520000000000000000000000000002D9A000004
:1005300000000000000000000000000000000000BB
:10054000000000000000249819828981883008F09A
:1005500028C08A8190E0959587958A832D98000020
:10056000000000000000000000000000000000008B
:100570000000000000001C9B03C08A8180688A8301
:100580002D9A0000000000000000000000000000A4
:100590000000000000000000000089818F5F898357
:1005A000D4CF249A2D98662301F12C9A00000000E4
:1005B000000000000000000000000000000000003B
:1005C000000000002D9A0000000000000000000064
:1005D00000000000000000000000000000008A8110
:1005E0000F900F90DF91CF9108952C98DFCFCF938C
:1005F000DF931F92CDB7DEB7882309F427C02D986B
:1006000000000000000000000000000000000000EA
:1006100000000000000000002C9800000000000016
:1006200000000000000000000000000000000000CA
:1006300000002D9A000000000000000000000000F3
:100640000000000000000000000000001982898105
:100650002D98883008F027C0862F90E060FF21C0D9
:100660002C9A0000000000000000000000000000C4
:1006700000000000000000000000BC0175956795B7
:100680002D9A0000000000000000000000000000A3
:100690000000000000000000000089818F5F898356
:1006A000D6CF2C98DECF4423F1F02C9A0000000026
:1006B000000000000000000000000000000000003A
:1006C000000000002D9A0000000000000000000063
:1006D00000000000000000000000000000000F907B
:1006E000DF91CF9108952C98E1CF1F93CF93DF93A3
:1006F000C82F162FD72F40E062EB81E00E94F7024F
:1007000040E0612F80E00E94F702DF736C2F62955A
:10071000660F660F607C6D2B40E080E00E94F70260
:100720006C2F66956695606C41E080E00E94F70250
:1007300084E0DF91CF911F910C944702CF93DF9318
:10074000D82F41E06EEA81E00E94F70284E00E9427
:10075000470260E081E00E947302C82F60E080E001
:100760000E94730260E080E00E94730261E080E01A
:100770000E94730284E00E94470240E060ED81E045
:100780000E94F70240E06AEA80E00E94F70240E03F
:1007900065E580E00E94F70240E06AEA80E00E949E
:1007A000F70241E065E580E00E94F70284E00E94E4
:1007B000470282EC8C0F823020F080E0DF91CF91F5
:1007C0000895CF3321F4D1111EC081E0F7CF40E06E
:1007D00060EF81E00E94F70240E064E580E00E9463
:1007E000F70240E061E580E00E94F70240E06AE441
:1007F00080E00E94F70241E06CE480E00E94F70292
:1008000084E00E94470261E070E080E00E9475038E
:1008100061E070E088E90E94750361E070E08AE9B8
:100820000E94750368EC70E080E090E00E94150281
:1008300061E070E08AE80E94750364E170E080E0A6
:1008400090E00E94150261E070E088E80E94750364
:1008500061E070E080E00E947503CE3309F059C07A
:1008600040E060EF81E00E94F70240E060E080E05D
:100870000E94F70240E060E080E00E94F70240E062
:1008800060E080E00E94F70241E060E080E00E94CA
:10089000F70284E00E94470240E061EB81E00E94A1
:1008A000F70240E06DE380E00E94F70240E060E67E
:1008B00080E00E94F70240E06CE080E00E94F702D6
:1008C00040E060E080E00E94F70241E06FE080E0FD
:1008D0000E94F70288E20E94470240E060EF81E058
:1008E0000E94F70240E063E480E00E94F70240E0EB
:1008F00060E480E00E94F70240E069E580E00E9449
:10090000F70241E06DE580E00E94F70284E00E947A
:10091000470288E20E94470240E061EB81E00E94CA
:10092000F70240E06CE080E00E94F70240E060E007
:1009300080E00E94F70241E067E180E00E94F70258
:1009400088E20E94470241E069EA81E00E94F702E2
:1009500084E00E94470260E081E00E94730261E04F
:1009600080E00E947302C82F84E00E944702C032D8
:1009700079F540E061EB81E00E94F70240E06DE331
:1009800080E00E94F70240E060E280E00E94F7020F
:1009900040E06CE080E00E94F70240E060E080E030
:1009A0000E94F70241E06FE080E00E94F70288E2D7
:1009B0000E94470240E061EB81E00E94F70241E0C3
:1009C0006DE080E00E94F70282E00E944702FDCEC7
:1009D000C03609F0F2CEEECF84B1806384B92C9892
:1009E0002D98089580913A028F5F80933A0285E1B5
:1009F0000C947F01CF93DF9340E061EB81E00E9494
:100A0000F70241E06DE080E00E94F70282E00E9480
:100A100047028BE193E00197F1F740E061EB81E061
:100A20000E94F70241E06CE080E00E94F70282E061
:100A30000E94470288E20E94470284B18F7C84B9F9
:100A40001092390261E08AE00E94A401EAE9F0E034
:100A50002491E6E8F0E084918823C1F090E0880FCB
:100A6000991FFC01E859FF4FC591D491FC01EE5844
:100A7000FF4FA591B4919FB7F8948881E22FE0953C
:100A80008E2388838C91E823EC939FBFDF91CF91D5
:100A90000895CF93C82F61E08AE00E94A401EAE99B
:100AA000F0E02491E6E8F0E08491882399F090E06A
:100AB000880F991FFC01E859FF4FA591B491FC01E3
:100AC000EE58FF4F859194918FB7F894EC91E22BFB
:100AD000EC938FBF64E170E080E090E00E9415022B
:100AE00060E08AE00E94A4010E94EC048AE00E9477
:100AF00047028C2F0E949E0380933902811105C00A
:100B00008C2F0E949E0380933902CF9108958BE32E
:100B100092E00E94EE00892BD1F38BE392E00E94D9
:100B2000C3000895CF93C82F0E948705803251F4E7
:100B300084E10E947F018C2F0E947F0180E1CF9190
:100B40000C947F0180913A028F5F80933A0285E195
:100B5000F6CF0E948705803231F484E10E947F0144
:100B600080E10C947F0180913A028F5F80933A027A
:100B700085E1F7CF0F931F93CF93DF938C01C6E3EB
:100B8000D1E0CE01865391408017910724F40E9452
:100B900087058993F6CFDF91CF911F910F9108952B
:100BA0000F931F93CF93DF938C010E94BA0560E0EF
:100BB00087E00E94A401D0E0C0E0C017D10744F450
:100BC0006DE270E080E090E00E9415022196F5CF82
:100BD00061E087E00E94A40180E1DF91CF911F9145
:100BE0000F9108951F920F920FB60F9211242F9319
:100BF0003F934F935F936F937F938F939F93AF93A5
:100C0000BF93EF93FF938BE392E00E941001FF915B
:100C1000EF91BF91AF919F918F917F916F915F9174
:100C20004F913F912F910F900FBE0F901F901895ED
:100C30001F920F920FB60F9211242F935F936F9311
:100C40007F938F939F93AF93BF93EF93FF93E09125
:100C50004B02F0914C028081E0915102F0915202DE
:100C600082FD24C020818091540290E001966AEFB9
:100C700070E00E941D0A90915502981741F0E09192
:100C80005402F0E0E55CFD4F258F80935402FF9104
:100C9000EF91BF91AF919F918F917F916F915F91F4
:100CA0002F910F900FBE0F901F9018958081EFCF5E
:100CB0001F920F920FB60F9211242F933F938F9391
:100CC0009F93AF93BF9380911B0190911C01A091C2
:100CD0001D01B0911E0130911A0123E0230F2D3721
:100CE00058F50196A11DB11D20931A0180931B0197
:100CF00090931C01A0931D01B0931E0180911F01D0
:100D000090912001A0912101B09122010196A11D95
:100D1000B11D80931F0190932001A0932101B093F6
:100D20002201BF91AF919F918F913F912F910F9091
:100D30000FBE0F901F90189526E8230F0296A11D55
:100D4000B11DD2CFCF93DF93CDB7DEB728970FB6C3
:100D5000F894DEBF0FBECDBF789484B5826084BDA9
:100D600084B5816084BD85B5826085BD85B58160AF
:100D700085BD80916E00816080936E00109281002D
:100D800080918100826080938100809181008160E8
:100D900080938100809180008160809380008091A9
:100DA000B10084608093B1008091B0008160809335
:100DB000B00080917A00846080937A0080917A00FC
:100DC000826080937A0080917A00816080937A00BB
:100DD00080917A00806880937A001092C1000E940E
:100DE000EC04E0914B02F0914C0282E08083E091B0
:100DF0004702F09148021082E0914902F0914A02C4
:100E000080E1808310925302E0914F02F0915002F2
:100E100086E08083E0914D02F0914E0280818061F6
:100E20008083E0914D02F0914E0280818860808342
:100E3000E0914D02F0914E02808180688083E091C4
:100E40004D02F0914E0280818F7D808334E0C32E6D
:100E5000D12C40E0E42E40E0F42E8BE392E00E949F
:100E6000EE00892B09F4E7C10E948705813509F45A
:100E700094C208F09AC0813409F44FC180F48033E1
:100E800009F434C1813309F436C1803209F09CC2BF
:100E900080913A028F5F80933A0285E1B6C1853432
:100EA00009F452C1803509F454C1823409F08CC26E
:100EB00084E190E00E94BA0580913601809323017D
:100EC000809137018093240180913801809325011E
:100ED000809139018093260180913A018093270106
:100EE00080913B018093280180913C0180932901EE
:100EF00080913D0180932A0180913E0180932B01D6
:100F00008091400190E0982F882720914101820F25
:100F1000911D90932D0180932C018091420190E0CE
:100F2000982F882720914301820F911D90932F01C4
:100F300080932E018091440190E0982F8827209182
:100F40004501820F911D9093310180933001809172
:100F5000460190E0B0E0A0E0BA2FA92F982F882793
:100F600020914701820F911DA11DB11DDC01992720
:100F700088274091480150E0542F4427052E000C4B
:100F8000660B770B840F951FA61FB71F2091490191
:100F9000820F911DA11DB11D8093320190933301E9
:100FA000A0933401B0933501A3C0813609F404C184
:100FB000C0F4863509F4D3C1803609F4FBC0853509
:100FC00009F002C20E948705182F0E94870590E051
:100FD000982F8827810F911D9093370280933602B6
:100FE00087C0843709F433C1853709F4DBC18436FF
:100FF00009F0EAC18091380281110AC010923A02C8
:101000000E94FA0481E00E94490581E08093380241
:101010000E948705A82EB12CBA2CAA240E9487050D
:10102000A80EB11C0E948705863409F0D7C0C501FF
:101030000E94BA050E948705803209F029CF84E119
:101040000E947F01009136021091370217FF02C003
:101050000F5F1F4F15950795B80180E00E9475033B
:10106000B80184E80E947503B80186E80E94750300
:1010700046E3842E41E0942EC401865391408A15A4
:101080009B050CF09CC0F40140805180628073800D
:10109000F4E08F0E911C40E062EB81E00E94F702C9
:1010A00040E0642D80E00E94F70240E0652D80E082
:1010B0000E94F70240E0662D80E00E94F70241E0C6
:1010C000672D80E00E94F70284E00E944702B80189
:1010D00086E80E947503B80186EC0E947503B8018A
:1010E00086E80E9475030F5F1F4FC6CF10923A0229
:1010F0000E94A905A0C00E948705803209F0C8CED1
:1011000084E10E947F0147E050E062E171E08BE3FF
:1011100092E00E94870080E178C00E9487058138B4
:1011200079F020F4803841F080E007C0823851F037
:101130008339D1F783E501C083E00E9492057BC02B
:1011400085E0FBCF81E0F9CF85E090E00E94BA0511
:10115000CFCF80913902882339F104E010E061E0BB
:1011600088E00E94A4016EE170E080E090E00E94BF
:10117000150260E088E00E94A4016EE170E080E06A
:1011800090E00E9415020150110949F7809139023F
:101190008111AECF0E948705803209F079CE84E1BB
:1011A0000E947F0181E131C080E00E9449051092D8
:1011B0003802ECCF0E9487050E94870599CF015025
:1011C0001109B80182E80E947503B80180E80E9405
:1011D0007503B80180E00E9475039DCF853411F737
:1011E00080913001909131018A159B0588F480919E
:1011F0003A028F5F80933A0211E10E9487058032A4
:10120000C1F484E10E947F01812F0E947F0113C0FD
:1012100081E2A816B10444F080E290E00E94D0057B
:10122000E0E2AE1AB108F4CFC5010E94D00510E18A
:10123000E4CF0E94F204E114F10409F40ECE0E94FE
:10124000FC00882309F409CE0E94000006CE0E940B
:101250008705182F0E948705A82E0E948705082F52
:101260000E948705803219F00E94F204E4CF812F9A
:1012700090E0982F8827A80EB92EB11C84E10E9417
:101280007F01063409F05CC00091360210913702EC
:1012900017FF02C00F5F1F4F1595079561E070E0C3
:1012A00080E00E947503912C812C8A149B040CF021
:1012B00044C0C40183709927892B71F5B80180EC73
:1012C0000E947503B80180EE0E94750341E06AEA4E
:1012D00081E00E94F70260E081E00E94730289834E
:1012E00060E080E00E9473028A8360E080E00E94F8
:1012F00073028B8361E080E00E9473028C8384E040
:101300000E94470289819A81AB81BC818D839E8333
:10131000AF83B8870F5F1F4FC401B6010E94310A27
:10132000E5E0F0E0EC0FFD1FE80FF91F80810E945F
:101330007F01FFEF8F1A9F0AB8CF61E070E04ACFBC
:10134000053409F02FCF10E000E0A016B10609F433
:10135000E2CE8FEF0E947F010F5F1F4FF6CF84E038
:1013600090E00E94BA0580913601803399F4809113
:101370003701811107C080913801813039F020F0A8
:10138000823031F08FEFD9CE8EE1D7CE85E9D5CE40
:101390008FE0D3CE803FB1F7C7CE10923A020E94C1
:1013A000FA04A6CE0E948705803209F071CD84E14F
:1013B0000E947F018EE10E947F0185E90E947F01EA
:1013C0008AE00E947F01A7CE80913A028F5F8093CE
:1013D0003A020E948705803209F05FCD82E115CF85
:1013E000EBE3F2E01382128288EE93E0A0E0B0E03B
:1013F00084839583A683B78384E091E0918380837F
:1014000085EC90E09587848784EC90E097878687C9
:1014100080EC90E0918B808B81EC90E0938B828BC1
:1014200082EC90E0958B848B86EC90E0978B868B9A
:10143000118E128E138E148E0895AA1BBB1B51E1C0
:1014400007C0AA1FBB1FA617B70710F0A61BB70B34
:10145000881F991F5A95A9F780959095BC01CD01D9
:10146000089597FB072E16F4009407D077FD09D056
:101470000E941D0A07FC05D03EF4909581959F4F70
:101480000895709561957F4F0895EE0FFF1F0590A9
:0A149000F491E02D0994F894FFCFC9
:10149A000000000032018700B4008401EE00C3009E
:0A14AA00E000415652204953500063
:00000001FF
