:100000000C946A000C9492000C9492000C94920050
:100010000C9492000C9492000C9492000C94920018
:100020000C9492000C94D5060C9492000C949200BF
:100030000C9492000C9492000C9492000C949200F8
:100040000C9492000C9492000C9495060C946F06FC
:100050000C9492000C9492000C9492000C949200D8
:100060000C9492000C94920000404132F011100068
:10007000002021310000000000000000000000000E
:1000800024230000000000250028002B002E000083
:10009000000000240027002A002D000404040404AA
:1000A0000404040202020202020303030303030521
:1000B0000505050505050102040810204080010220
:1000C0000408102001020408102002080104102076
:1000D00040001F0711241FBECFEFD8E0DEBFCDBF09
:1000E00011E0A0E0B1E0ECE6F7E102C005900D926E
:1000F000A633B107D9F723E0A6E3B1E001C01D9212
:10010000A23BB207E1F710E0CAE6D0E004C02197B5
:10011000FE010E94AE0BC936D107C9F70E945007F5
:100120000C94B40B0C94000090E0FC01EA54FF4FD7
:100130003491FC01E556FF4F2491FC01E859FF4F33
:10014000E491EE2309F446C0E051E63308F042C0E2
:10015000F0E0E355FF4F0C94AE0B07010B010701D4
:100160000B01EA00EA00EA00EA00EA00EA00EA001D
:10017000EA00EA00EA00EA00EA00E5000301EA001A
:10018000E3000101EA00EA00EA00EA00EA00EA000E
:10019000EA00EA00EA00EA00EA00EA000E011401BF
:1001A0000E011401EA00EA00EA00EA00EA00EA00AF
:1001B000EA00EA00EA00EA00EA001801200126014C
:1001C0001A0122011A019D986D9A809180008F7703
:1001D000809380002223A1F0822F90E0880F991F46
:1001E000FC01E157FF4FA591B491FC01ED57FF4F82
:1001F000859194918FB7F894EC913E2B3C938FBFEF
:1002000008959C986C9A809180008F7DE1CF84B591
:100210008F7784BDDFCF84B58F7DFBCF8091B00019
:100220008F778093B000D6CF8091B0008F7DF9CFCB
:100230009998519A809190008F7780939000CACFBF
:100240009A98529A809190008F7DF7CF809190007C
:10025000877FF3CFAF92BF92CF92DF92EF92FF9260
:100260000F931F93CF93DF936C017B018B01040FDE
:10027000151FEB015E01AE18BF08C017D10759F07A
:100280006991D601ED91FC910190F081E02DC601BC
:100290000995892B79F7C501DF91CF911F910F91B6
:1002A000FF90EF90DF90CF90BF90AF900895FC014A
:1002B000918D828D9817A9F0A28DAE0FBF2FB11D21
:1002C0005D968C91228D2F5F91E02A3F08F490E09B
:1002D000392F330F330F931B990F291B228F90E077
:1002E00008958FEF9FEF0895FC01918D828D9817EF
:1002F00031F0828DE80FF11D858D90E008958FEF2C
:100300009FEF0895FC01918D228D892F90E08650FA
:100310009F4F821B91096AEF70E00E94860B08953F
:1003200086E592E00E94820121E0892B09F420E019
:10033000822F089580E090E0892B29F00E9490019F
:1003400081110C9400000895FC01A48DA80FB92F11
:10035000B11DA95EBE4F2C91848D90E001968F73E4
:100360009927848FA689B7892C93A089B1898C910C
:1003700080648C93938D848D981306C00288F389D2
:10038000E02D80818F7D80830895EF92FF920F93FF
:100390001F93CF93DF93EC0181E0888F9B8D8C8D31
:1003A000981316C0E889F989808185FF11C0EE890C
:1003B000FF896083E889F98980818064808381E096
:1003C00090E0DF91CF911F910F91FF90EF900895F2
:1003D000F62E0B8D10E00F5F1F4F0F731127E02ECD
:1003E0008C8D8E110CC00FB607FCFACFE889F98905
:1003F000808185FFF5CFCE010E94A401F1CFEB8D66
:10040000EC0FFD2FF11DE95EFE4FF0820B8FEA89A4
:10041000FB8980818062D2CF682F86E592E00C94C0
:10042000C501CF93DF93EC01888D8823B9F0AA89A9
:10043000BB89E889F9898C9185FD03C0808186FD9F
:100440000DC00FB607FCF7CF8C9185FFF2CF8081EE
:1004500085FFEDCFCE010E94A401E9CFDF91CF91BE
:10046000089590E0FC01EA54FF4F2491FC01E55609
:10047000FF4FE491EE2389F0F0E0EE0FFF1FED5700
:10048000FF4FA591B4918FB7F894611107C09C916B
:10049000E22FE095E923EC938FBF0895EC91E22BD6
:1004A000FACF00000000000000008230910548F003
:1004B000880F991F880F991F05970000019700006A
:1004C000E9F708953FB7F89480913B0190913C0182
:1004D000A0913D01B0913E012091B200B89B05C0B2
:1004E0002F3F19F00196A11DB11D3FBFBA2FA92FB3
:1004F000982F8827BC01CD01620F711D811D911DB0
:1005000042E0660F771F881F991F4A95D1F708951B
:100510008F929F92AF92BF92CF92DF92EF92FF9213
:100520004B015C010E9462026B017C010E9462022D
:100530006C197D098E099F09683E734081059105FC
:10054000A8F321E0821A9108A108B10888EEC80E2C
:1005500083E0D81EE11CF11C81149104A104B104B4
:1005600029F7FF90EF90DF90CF90BF90AF909F90D2
:100570008F900895CF93DF931F92CDB7DEB72C9A5B
:10058000198299819817F0F42D980000000000005E
:10059000000000000000000000000000000000005B
:1005A00000002D9A00000000000000000000000084
:1005B00000000000000000000000000099819F5F23
:1005C0009983DFCF0F90DF91CF910895CF93DF9381
:1005D00000D0CDB7DEB71A82882309F427C02D9842
:1005E000000000000000000000000000000000000B
:1005F00000000000000000002C9800000000000037
:1006000000000000000000000000000000000000EA
:1006100000002D9A00000000000000000000000013
:100620000000000000000000000000002498198273
:100630008981883008F028C08A8190E09595879557
:100640008A832D98000000000000000000000000D8
:100650000000000000000000000000001C9B03C020
:100660008A8180688A832D9A0000000000000000C3
:10067000000000000000000000000000000000007A
:1006800089818F5F8983D4CF249A2D98662301F1C5
:100690002C9A000000000000000000000000000094
:1006A000000000000000000000002D9A0000000083
:1006B000000000000000000000000000000000003A
:1006C000000000008A810F900F90DF91CF91089574
:1006D0002C98DFCFCF93DF931F92CDB7DEB788235F
:1006E00009F427C02D980000000000000000000061
:1006F00000000000000000000000000000002C9836
:1007000000000000000000000000000000000000E9
:1007100000000000000000002D9A00000000000012
:1007200000000000000000000000000000000000C9
:100730000000198289812D98883008F027C0862F03
:1007400090E060FF21C02C9A000000000000000033
:100750000000000000000000000000000000000099
:10076000BC01759567952D9A0000000000000000FF
:100770000000000000000000000000000000000079
:1007800089818F5F8983D6CF2C98DECF4423F1F007
:100790002C9A000000000000000000000000000093
:1007A000000000000000000000002D9A0000000082
:1007B0000000000000000000000000000000000039
:1007C000000000000F90DF91CF9108952C98E1CFA9
:1007D00040E061EB81E00E946A0341E06DE080E06F
:1007E0000E946A0382E00E94BA0288EC90E00E94B4
:1007F000510240E061EB81E00E946A0341E06CE05D
:1008000080E00E946A0382E00E94BA0288E20E94AD
:10081000BA02109252012A9A229808951F93CF93F8
:10082000DF93C82F162FD72F40E062EB81E00E94A4
:100830006A0340E0612F80E00E946A03DF736C2F3F
:100840006295660F660F607C6D2B40E080E00E9431
:100850006A036C2F66956695606C41E080E00E94AB
:100860006A0384E0DF91CF911F910C94BA02CF9379
:10087000DF93D82F41E06EEA81E00E946A0384E0B2
:100880000E94BA0260E081E00E94E602C82F60E0A8
:1008900080E00E94E60260E080E00E94E60261E003
:1008A00080E00E94E60284E00E94BA0240E060ED2F
:1008B00081E00E946A0340E06AEA80E00E946A03E5
:1008C00040E065E580E00E946A0340E06AEA80E07B
:1008D0000E946A0341E065E580E00E946A0384E0CB
:1008E0000E94BA0282EC8C0F823020F080E0DF910F
:1008F000CF910895CF3309F0EAC0DD2309F4E5C0B4
:1009000061E070E080E00E940E0461E070E088E940
:100910000E940E0461E070E08AE90E940E0468EC17
:1009200070E080E090E00E94880261E070E08AE878
:100930000E940E0464E170E080E090E00E94880272
:1009400061E070E088E80E940E0461E070E080E001
:100950000E940E04CE3309F059C040E060EF81E000
:100960000E946A0340E060E080E00E946A0340E089
:1009700060E080E00E946A0340E060E080E00E9466
:100980006A0341E060E080E00E946A0384E00E9424
:10099000BA0240E061EB81E00E946A0340E06DE34F
:1009A00080E00E946A0340E060E680E00E946A0303
:1009B00040E06CE080E00E946A0340E060E080E09C
:1009C0000E946A0341E06FE080E00E946A0388E2CF
:1009D0000E94BA0240E060EF81E00E946A0340E0BA
:1009E00063E480E00E946A0340E060E480E00E94EB
:1009F0006A0340E069E580E00E946A0341E06DE53A
:100A000080E00E946A0384E00E94BA0288E20E94A9
:100A1000BA0240E061EB81E00E946A0340E06CE0D2
:100A200080E00E946A0340E060E080E00E946A0388
:100A300041E067E180E00E946A0388E20E94BA0216
:100A400041E069EA81E00E946A0384E00E94BA0200
:100A500060E081E00E94E60261E080E00E94E60240
:100A6000C82F84E00E94BA02C03209F067C040E09B
:100A700061EB81E00E946A0340E06DE380E00E9448
:100A80006A0340E060E280E00E946A0340E06CE0BC
:100A900080E00E946A0340E060E080E00E946A0318
:100AA00041E06FE080E00E946A0388E20E94BA029F
:100AB00040E061EB81E00E946A0341E06DE080E08C
:100AC0000E946A0382E00E94BA0281E010CF40E0F7
:100AD00060EF81E00E946A0340E064E580E00E94EC
:100AE0006A0340E061E580E00E946A0340E06AE456
:100AF00080E00E946A0341E06CE480E00E946A03A7
:100B000084E00E94BA02D111FBCE61E070E080E087
:100B10000E940E0461E070E088E90E940E0461E02A
:100B200070E082E90E940E0468EC70E080E090E0E2
:100B30000E94880261E070E08EE9EFCEC03609F0D5
:100B4000D5CEB6CFCF93DF93EC018AE00E94BA02F4
:100B500041E068EA81E00E946A0384E00E94BA02F0
:100B600060E081E00E94E602888360E080E00E940D
:100B7000E602898360E080E00E94E6028A8361E009
:100B800080E00E94E6028B8384E0DF91CF910C9499
:100B9000BA0284B1806384B92C9A2D9A0895CF93B8
:100BA000C82F2A9A229A64E170E080E090E00E94C7
:100BB00088022A980E94C90580E50E94BA028C2FFB
:100BC0000E9437048093520180915201811105C027
:100BD0008C2F0E94370480935201CF910895809109
:100BE00055028F5F8093550285E10C940C0286E5D7
:100BF00092E00E948201892BD1F386E592E00E9467
:100C000057010895CF93C82F0E94F705803251F401
:100C100084E10E940C028C2F0E940C0280E1CF9193
:100C20000C940C02809155028F5F8093550285E1F0
:100C3000F6CF0E94F705803231F484E10E940C0265
:100C400080E10C940C02809155028F5F80935502D5
:100C500085E1F7CF0F931F93CF93DF938C01C3E50B
:100C6000D1E0CE01835591408017910724F40E9472
:100C7000F7058993F6CFDF91CF911F910F910895DA
:100C80000F931F93CF93DF938C010E942A0660E09D
:100C900087E00E943102D0E0C0E0C017D10744F4E1
:100CA0006DE270E080E090E00E9488022196F5CF2E
:100CB00061E087E00E94310280E1DF91CF911F91D6
:100CC0000F910895FC0101900020E9F73197AF01E1
:100CD000481B590BBC0186E592E00C942A011F9237
:100CE0000F920FB60F9211242F933F934F935F9360
:100CF0006F937F938F939F93AF93BF93EF93FF93E4
:100D000086E592E00E94A401FF91EF91BF91AF911F
:100D10009F918F917F916F915F914F913F912F9113
:100D20000F900FBE0F901F9018951F920F920FB645
:100D30000F9211242F935F936F937F938F939F93C1
:100D4000AF93BF93EF93FF93E0916602F091670238
:100D50008081E0916C02F0916D0282FD24C02081BF
:100D600080916F0290E001966AEF70E00E94860B1E
:100D700090917002981741F0E0916F02F0E0EA5A0A
:100D8000FD4F258F80936F02FF91EF91BF91AF913F
:100D90009F918F917F916F915F912F910F900FBED7
:100DA0000F901F9018958081EFCF1F920F920FB672
:100DB0000F9211242F933F938F939F93AF93BF93E1
:100DC0008091370190913801A0913901B0913A0199
:100DD0003091360123E0230F2D3758F50196A11DE0
:100DE000B11D209336018093370190933801A09371
:100DF0003901B0933A0180913B0190913C01A0915F
:100E00003D01B0913E010196A11DB11D80933B01B2
:100E100090933C01A0933D01B0933E01BF91AF91EF
:100E20009F918F913F912F910F900FBE0F901F9028
:100E3000189526E8230F0296A11DB11DD2CFE6E535
:100E4000F2E01382128288EE93E0A0E0B0E08483A7
:100E50009583A683B78384E091E09183808385ECBA
:100E600090E09587848784EC90E09787868780EC74
:100E700090E0918B808B81EC90E0938B828B82EC65
:100E800090E0958B848B86EC90E0978B868B118E0F
:100E9000128E138E148E0E94C9051092B10308950C
:100EA000CF93DF93CDB7DEB7A3970FB6F894DEBF2D
:100EB0000FBECDBF8091F20080618EBB90E8909311
:100EC000F2008EB38093F2008091F20084608EBBBA
:100ED0009093F2008EB38093F20081EF815011F075
:100EE0000000FCCF8091F2008F7980628EBB80E899
:100EF0008093F2009EB39093F20080936100109271
:100F00006100789484B5826084BD84B5816084BDBD
:100F100085B5826085BD85B5816085BD10928100F3
:100F20008091810081608093810080918100806147
:100F300080938100809180008260809380008FE3A5
:100F4000809387009FEF909386008091B10084602A
:100F50008093B1008091B00082608093B000809156
:100F6000B00081608093B0008091700081608093B8
:100F70007000809191008160809391008091910038
:100F800080618093910080919000826080939000B6
:100F90009093960080917A00846080937A0080918B
:100FA0007A00826080937A0080917A0081608093D9
:100FB0007A0080917A00806880937A001092C10054
:100FC000E0916602F091670282E08083E091620224
:100FD000F09163021082E0916402F091650280E179
:100FE000808310926E02E0916A02F0916B0286E0BB
:100FF0008083E0916802F091690280818061808342
:10100000E0916802F0916902808188608083E091BC
:101010006802F0916902808180688083E0916802B3
:10102000F091690280818F7D808387E00E94940027
:1010300088E00E949400CE0101965C0144E0642E99
:10104000712C8091520161E0811101C060E087E064
:101050000E943102F090550261E0F11001C060E0A1
:1010600088E00E94310286E592E00E948201892B8D
:1010700009F4D2C28BE1EBE1F1E0D50101900D92D0
:101080008A95E1F7F50190E080E0BF016A197B09DC
:101090002191222341F0269FA001279F500D11246A
:1010A00084279527F2CF8C3D9B4009F0B5C20E9462
:1010B000F705853509F4FFC158F5813409F422C1DB
:1010C00060F4803309F4FDC0813309F4FFC080323D
:1010D00059F4F394F0925502ECC1853409F4A6C199
:1010E00068F4823409F425C1F394F09255020E9409
:1010F000F705803209F0DDC182E1B1C2803509F423
:101100009AC1813589F7109255020E94E803DBC02D
:10111000843609F4E4C108F5803609F4DBC1813670
:1011200009F4DAC1863501F784E090E00E942A06CE
:1011300080915301803309F0D5C28091540181110F
:101140000AC080915501813009F4C8C208F4C4C2B4
:10115000823009F4C5C28FEFE5C0853709F4C6C2F5
:1011600008F089C0843709F0BFCF20905302309037
:1011700054020E94F705082F0E94F705D82E0E94FE
:10118000F705E82E0E94F705803209F0A2CF10E0A3
:10119000102F00270D0D111D84E10E940C0286E422
:1011A000E8128AC2220C331C032C000C4408550898
:1011B00080915201882309F46CC292E056944794BE
:1011C000379427949A95D1F761E070E080E00E940F
:1011D0000E0423E5C22E21E0D22EF12CE12CE016E4
:1011E000F1060CF051C2C70183709927892B89F54C
:1011F000B10180EC0E940E04B10180EE0E940E0449
:1012000041E06AEA81E00E946A0360E081E00E94B6
:10121000E6028C8F60E080E00E94E6028D8F60E045
:1012200080E00E94E6028E8F61E080E00E94E6028C
:101230008F8F84E00E94BA028C8D9D8DAE8DBF8D04
:1012400088A399A3AAA3BBA39FEF291A390A490A25
:10125000590AC701B3010E949A0BE0E2F0E0EC0FDB
:10126000FD1FE80FF91F8081F60181936F01FFEFE9
:10127000EF1AFF0AB4CF8937B9F18A3709F034CFB2
:101280000E94F705803209F024CF8DEA93E00E9496
:10129000A205E090AD03F090AE030091AF03109172
:1012A000B00384E10E940C028E2D0E940C028F2D4F
:1012B0000E940C02802F0E940C02812F0E940C02BF
:1012C00011C0109255020E941906A6C10E94F7058E
:1012D000803209F0FECE84E10E940C0280E191E0B0
:1012E0000E94620680E1BBC10E94F705803209F0CE
:1012F000F0CE84E10E940C02C5010E94620688E1E2
:1013000091E0EECF0E94F705813879F020F4803823
:1013100041F080E007C0823851F08339D1F783E58E
:1013200001C083E00E94020677C186E0FBCF84E023
:10133000F9CF84E190E00E942A06809153018093C6
:101340003F01809154018093400180915501809329
:101350004101809156018093420180915701809311
:1013600043018091580180934401809159018093F9
:10137000450180915A018093460180915B018093E1
:10138000470180915D0190E0982F882720915E01B0
:10139000820F911D909349018093480180915F01D4
:1013A00090E0982F882720916001820F911D9093E3
:1013B0004B0180934A018091610190E0982F88272A
:1013C00020916201820F911D90934D0180934C01F9
:1013D0008091630190E0B0E0A0E0BA2FA92F982F90
:1013E000882720916401820F911DA11DB11DDC0190
:1013F000992788274091650150E0542F4427052EF6
:10140000000C660B770B840F951FA61FB71F20914A
:101410006601820F911DA11DB11D80934E01909315
:101420004F01A0935001B09351014DCF85E090E062
:101430000E942A0648CF80915201882331F104E0AE
:1014400010E061E088E00E9431026EE170E080E02F
:1014500090E00E94880260E088E00E9431026EE124
:1014600070E080E090E00E9488020150110949F785
:1014700080915201811127CF0E94F7058032A1F49B
:1014800084E10E940C0281E1EAC080915201811145
:1014900004C00E94CF051092B1038DEA93E00E9430
:1014A000A20580915201E4CF809155028F5F809315
:1014B000550285E1D4C00E94F705182F0E94F70558
:1014C00090E0982F8827810F911D9093540280936C
:1014D0005302F9CE0E94F7050E94F705F4CE0E9450
:1014E000F705082F10E0102F00270E94F705080FBE
:1014F000111D0E94F705863409F09BC0209053020D
:1015000030905402C8010E942A060E94F7058032DA
:1015100009F080C084E10E940C028091B103811126
:1015200008C00E94E80381E00E94CF0581E080931B
:10153000B10380915201882309F469C0220C331C45
:10154000032C000C4408550862E0569447943794E5
:1015500027946A95D1F77101B10180E00E940E04D1
:10156000B10184E80E940E04B10186E80E940E04D5
:1015700073E5C72E71E0D72E4701FFEF8F1A9F0A40
:10158000C601835591408017910794F5F60120809C
:10159000318042805380F4E0CF0ED11C40E062EBFA
:1015A00081E00E946A0340E0622D80E00E946A03AD
:1015B00040E0632D80E00E946A0340E0642D80E0FB
:1015C0000E946A0341E0652D80E00E946A0384E086
:1015D0000E94BA02B70186E80E940E04B70186ECA9
:1015E0000E940E04B70186E80E940E047401C4CF65
:1015F00021E0E21AF108B70182E80E940E04B70167
:1016000080E80E940E04B70180E00E940E048091E1
:10161000520168CE0E94EF0580E090E0892B09F42A
:1016200010CD0E949001882309F40BCD0E94000088
:1016300008CD853409F027CF80914C0190914D0160
:101640008017910778F4F394F092550211E10E940B
:10165000F7058032B1F484E10E940C02812F0E94D0
:101660000C02DACF013211053CF080E290E00E94DA
:10167000400600521109F6CFC8010E94400610E151
:10168000E6CF0E94EF05C8CF61E070E080E00E94E5
:101690000E048091520183E5E82E81E0F82EC70107
:1016A000835591408017910708F01CCEF701819176
:1016B0007F010E940C02F3CFF5E4EF12E4CEF12C8F
:1016C000E12CE016F10609F40DCE8FEF0E940C021A
:1016D0002FEFE21AF20AF5CF8EE124CE85E922CE71
:1016E0008FE020CE803F09F036CD13CE0E94F70563
:1016F000803209F0EECC84E10E940C028EE10E945F
:101700000C0285E90E940C028AE0D8CDAA1BBB1B03
:1017100051E107C0AA1FBB1FA617B70710F0A61BF1
:10172000B70B881F991F5A95A9F780959095BC0112
:10173000CD01089597FB072E16F4009407D077FD8E
:1017400009D00E94860B07FC05D03EF49095819548
:101750009F4F0895709561957F4F0895EE0FFF1F7D
:0C1760000590F491E02D0994F894FFCF5F
:10176C0000000000C5012A01820157017401110219
:10177C0041565220495350000D0A007B226175746A
:10178C00686F7222203A202262726F746865725FF1
:06179C0079616E227D0060
:00000001FF
