:100000000C946A000C9492000C9492000C94920050
:100010000C9492000C9492000C9492000C94920018
:100020000C9492000C94BA060C9492000C949200DA
:100030000C9492000C9492000C9492000C949200F8
:100040000C9492000C9492000C947A060C94540632
:100050000C9492000C9492000C9492000C949200D8
:100060000C9492000C94920000404132F011100068
:10007000002021310000000000000000000000000E
:1000800024230000000000240027002A002D000087
:10009000000000250028002B002E000404040404A6
:1000A0000404040202020202020303030303030521
:1000B0000505050505050102040810204080010220
:1000C0000408102001020408102002080104102076
:1000D0004000130B11241FBECFEFD8E0DEBFCDBF11
:1000E00011E0A0E0B1E0E0EEF6E102C005900D9273
:1000F000A633B107D9F723E0A6E3B1E001C01D9212
:10010000AE3AB207E1F710E0CAE6D0E004C02197AA
:10011000FE010E94680BC936D107C9F70E94040787
:100120000C946E0B0C940000AF92BF92CF92DF92B2
:10013000EF92FF920F931F93CF93DF936C017B019C
:100140008B01040F151FEB015E01AE18BF08C0172D
:10015000D10759F06991D601ED91FC910190F081A0
:10016000E02DC6010995892B79F7C501DF91CF9163
:100170001F910F91FF90EF90DF90CF90BF90AF90C5
:100180000895FC01918D828D9817A9F0A28DAE0F74
:10019000BF2FB11D5D968C91228D2F5F91E02A3F7C
:1001A00008F490E0392F330F330F931B990F291B5D
:1001B000228F90E008958FEF9FEF0895FC01918DBD
:1001C000828D981731F0828DE80FF11D858D90E0BA
:1001D00008958FEF9FEF0895FC01918D228D892F57
:1001E00090E086509F4F821B91096AEF70E00E9459
:1001F000400B089587E592E00E94EC0021E0892BF6
:1002000009F420E0822F089580E090E0892B29F006
:100210000E94FA0081110C9400000895FC01A48D45
:10022000A80FB92FB11DA95EBE4F2C91848D90E00F
:1002300001968F739927848FA689B7892C93A089FB
:10024000B1898C9180648C93938D848D981306C0B2
:100250000288F389E02D80818F7D80830895EF925D
:10026000FF920F931F93CF93DF93EC0181E0888F70
:100270009B8D8C8D981316C0E889F989808185FF44
:1002800011C0EE89FF896083E889F98980818064E3
:10029000808381E090E0DF91CF911F910F91FF90DB
:1002A000EF900895F62E0B8D10E00F5F1F4F0F7328
:1002B0001127E02E8C8D8E110CC00FB607FCFACFE3
:1002C000E889F989808185FFF5CFCE010E940E0172
:1002D000F1CFEB8DEC0FFD2FF11DE95EFE4FF082AB
:1002E0000B8FEA89FB8980818062D2CF682F87E5F6
:1002F00092E00C942F01CF93DF93EC01888D88233B
:10030000B9F0AA89BB89E889F9898C9185FD03C078
:10031000808186FD0DC00FB607FCF7CF8C9185FF5D
:10032000F2CF808185FFEDCFCE010E940E01E9CF93
:10033000DF91CF91089590E0FC01EA54FF4F2491A2
:10034000FC01E556FF4FE491EE2389F0F0E0EE0F5B
:10035000FF1FE157FF4FA591B4918FB7F89461113A
:1003600007C09C91E22FE095E923EC938FBF08959D
:10037000EC91E22BFACFCF93DF9390E0FC01EA54AB
:10038000FF4F3491FC01E556FF4F2491FC01E859E1
:10039000FF4FE491EE2309F446C0E051E63308F044
:1003A00042C0F0E0EA52FE4F0C94680B38023C0267
:1003B00038023C0213021302130213021302130247
:1003C0001302130213021302130213020E02340269
:1003D00013020C023202130213021302130213025D
:1003E00013021302130213021302130213023F0239
:1003F00045023F02450213021302130213021302C5
:1004000013021302130213021302130249025102D0
:1004100057024B0253024B029D986D9A80918000C7
:100420008F77809380002223D1F0822F90E0880F75
:10043000991FFC01ED57FF4FA591B491FC01E157C5
:10044000FF4FC591D491611136C09FB7F8948C913C
:10045000309583238C938881382338839FBFDF9125
:10046000CF9108959C986C9A809180008F7DD9CF10
:1004700084B58F7784BDD7CF84B58F7DFBCF809136
:10048000B0008F778093B000CECF8091B0008F7D89
:10049000F9CF9998519A809190008F77809390002E
:1004A000C2CF9A98529A809190008F7DF7CF809119
:1004B0009000877FF3CF8FB7F894EC913E2B3C935D
:1004C0008FBFCDCF3FB7F89480913B0190913C0115
:1004D000A0913D01B0913E012091B200B89B05C0B2
:1004E0002F3F19F00196A11DB11D3FBFBA2FA92FB3
:1004F000982F8827BC01CD01620F711D811D911DB0
:1005000042E0660F771F881F991F4A95D1F708951B
:100510008F929F92AF92BF92CF92DF92EF92FF9213
:100520004B015C010E9462026B017C010E9462022D
:100530006C197D098E099F09683E734081059105FC
:10054000A8F321E0821A9108A108B10888EEC80E2C
:1005500083E0D81EE11CF11C81149104A104B104B4
:1005600029F7FF90EF90DF90CF90BF90AF909F90D2
:100570008F900895CF93DF931F92CDB7DEB72C9A5B
:10058000198299819817F0F42D980000000000005E
:10059000000000000000000000000000000000005B
:1005A00000002D9A00000000000000000000000084
:1005B00000000000000000000000000099819F5F23
:1005C0009983DFCF0F90DF91CF910895CF93DF9381
:1005D00000D0CDB7DEB71A82882309F427C02D9842
:1005E000000000000000000000000000000000000B
:1005F00000000000000000002C9800000000000037
:1006000000000000000000000000000000000000EA
:1006100000002D9A00000000000000000000000013
:100620000000000000000000000000002498198273
:100630008981883008F028C08A8190E09595879557
:100640008A832D98000000000000000000000000D8
:100650000000000000000000000000001C9B03C020
:100660008A8180688A832D9A0000000000000000C3
:10067000000000000000000000000000000000007A
:1006800089818F5F8983D4CF249A2D98662301F1C5
:100690002C9A000000000000000000000000000094
:1006A000000000000000000000002D9A0000000083
:1006B000000000000000000000000000000000003A
:1006C000000000008A810F900F90DF91CF91089574
:1006D0002C98DFCFCF93DF931F92CDB7DEB788235F
:1006E00009F427C02D980000000000000000000061
:1006F00000000000000000000000000000002C9836
:1007000000000000000000000000000000000000E9
:1007100000000000000000002D9A00000000000012
:1007200000000000000000000000000000000000C9
:100730000000198289812D98883008F027C0862F03
:1007400090E060FF21C02C9A000000000000000033
:100750000000000000000000000000000000000099
:10076000BC01759567952D9A0000000000000000FF
:100770000000000000000000000000000000000079
:1007800089818F5F8983D6CF2C98DECF4423F1F007
:100790002C9A000000000000000000000000000093
:1007A000000000000000000000002D9A0000000082
:1007B0000000000000000000000000000000000039
:1007C000000000000F90DF91CF9108952C98E1CFA9
:1007D0001F93CF93DF93C82F162FD72F40E062EBE4
:1007E00081E00E946A0340E0612F80E00E946A037A
:1007F000DF736C2F6295660F660F607C6D2B40E097
:1008000080E00E946A036C2F66956695606C41E0FB
:1008100080E00E946A0384E0DF91CF911F910C94E5
:10082000BA02CF93DF93D82F41E06EEA81E00E94B5
:100830006A0384E00E94BA0260E081E00E94E6025E
:10084000C82F60E080E00E94E60260E080E00E9445
:10085000E60261E080E00E94E60284E00E94BA02C3
:1008600040E060ED81E00E946A0340E06AEA80E0D7
:100870000E946A0340E065E580E00E946A0340E070
:100880006AEA80E00E946A0341E065E580E00E9438
:100890006A0384E00E94BA0282EC8C0F823020F05E
:1008A00080E0DF91CF910895CF3309F0EAC0DD23D6
:1008B00009F4E5C061E070E080E00E94E80361E0D7
:1008C00070E088E90E94E80361E070E08AE90E9434
:1008D000E80368EC70E080E090E00E94880261E04C
:1008E00070E08AE80E94E80364E170E080E090E054
:1008F0000E94880261E070E088E80E94E80361E0FD
:1009000070E080E00E94E803CE3309F059C040E077
:1009100060EF81E00E946A0340E060E080E00E94B6
:100920006A0340E060E080E00E946A0340E060E02B
:1009300080E00E946A0341E060E080E00E946A0378
:1009400084E00E94BA0240E061EB81E00E946A0309
:1009500040E06DE380E00E946A0340E060E680E0F2
:100960000E946A0340E06CE080E00E946A0340E07D
:1009700060E080E00E946A0341E06FE080E00E9456
:100980006A0388E20E94BA0240E060EF81E00E94C0
:100990006A0340E063E480E00E946A0340E060E4B0
:1009A00080E00E946A0340E069E580E00E946A03FB
:1009B00041E06DE580E00E946A0384E00E94BA0293
:1009C00088E20E94BA0240E061EB81E00E946A0383
:1009D00040E06CE080E00E946A0340E060E080E07C
:1009E0000E946A0341E067E180E00E946A0388E2B6
:1009F0000E94BA0241E069EA81E00E946A0384E051
:100A00000E94BA0260E081E00E94E60261E080E0BC
:100A10000E94E602C82F84E00E94BA02C03209F0A8
:100A200067C040E061EB81E00E946A0340E06DE353
:100A300080E00E946A0340E060E280E00E946A0376
:100A400040E06CE080E00E946A0340E060E080E00B
:100A50000E946A0341E06FE080E00E946A0388E23E
:100A60000E94BA0240E061EB81E00E946A0341E02B
:100A70006DE080E00E946A0382E00E94BA0281E099
:100A800010CF40E060EF81E00E946A0340E064E53F
:100A900080E00E946A0340E061E580E00E946A0312
:100AA00040E06AE480E00E946A0341E06CE480E098
:100AB0000E946A0384E00E94BA02D111FBCE61E079
:100AC00070E080E00E94E80361E070E088E90E9445
:100AD000E80361E070E082E90E94E80368EC70E0FE
:100AE00080E090E00E94880261E070E08EE9EFCE45
:100AF000C03609F0D5CEB6CF84B1806384B92C9AC4
:100B00002D9A0895809155028F5F8093550285E15B
:100B10000C94760140E061EB81E00E946A0341E0C1
:100B20006DE080E00E946A0382E00E94BA028BE1DD
:100B300093E00197F1F740E061EB81E00E946A03E6
:100B400041E06CE080E00E946A0382E00E94BA0209
:100B500088E20E94BA021092560261E08AE00E9486
:100B60009B0160E08AE00C94BB01CF93C82F61E049
:100B70008AE00E949B0161E08AE00E94BB0164E17F
:100B800070E080E090E00E94880260E08AE00E94CD
:100B90009B010E947C0580E50E94BA028C2F0E9476
:100BA000110480935602811105C08C2F0E941104FC
:100BB00080935602CF91089587E592E00E94EC0061
:100BC000892BD1F387E592E00E94C1000895CF936D
:100BD000C82F0E94DC05803251F484E10E94760126
:100BE0008C2F0E94760180E1CF910C947601809148
:100BF00055028F5F8093550285E1F6CF0E94DC0598
:100C0000803231F484E10E94760180E10C94760117
:100C1000809155028F5F8093550285E1F7CF0F9346
:100C20001F93CF93DF938C01C2E5D1E0CE018255B3
:100C300091408017910724F40E94DC058993F6CF38
:100C4000DF91CF911F910F9108950F931F93CF9331
:100C5000DF938C010E940F0660E087E00E949B01F9
:100C6000D0E0C0E0C017D10744F46DE270E080E04E
:100C700090E00E9488022196F5CF61E087E00E9413
:100C80009B0180E1DF91CF911F910F910895FC01AD
:100C900001900020E9F73197AF01481B590BBC01C7
:100CA00087E592E00C9494001F920F920FB60F927A
:100CB00011242F933F934F935F936F937F938F9361
:100CC0009F93AF93BF93EF93FF9387E592E00E94CA
:100CD0000E01FF91EF91BF91AF919F918F917F9105
:100CE0006F915F914F913F912F910F900FBE0F9099
:100CF0001F9018951F920F920FB60F9211242F93E9
:100D00005F936F937F938F939F93AF93BF93EF9373
:100D1000FF93E0916702F09168028081E0916D029B
:100D2000F0916E0282FD24C020818091700290E0DB
:100D300001966AEF70E00E94400B90917102981743
:100D400041F0E0917002F0E0E95AFD4F258F809369
:100D50007002FF91EF91BF91AF919F918F917F9121
:100D60006F915F912F910F900FBE0F901F9018956C
:100D70008081EFCF1F920F920FB60F9211242F9305
:100D80003F938F939F93AF93BF938091370190913F
:100D90003801A0913901B0913A013091360123E038
:100DA000230F2D3758F50196A11DB11D2093360153
:100DB0008093370190933801A0933901B0933A01A1
:100DC00080913B0190913C01A0913D01B0913E0189
:100DD0000196A11DB11D80933B0190933C01A0930E
:100DE0003D01B0933E01BF91AF919F918F913F9193
:100DF0002F910F900FBE0F901F90189526E8230F8C
:100E00000296A11DB11DD2CFCF93DF93CDB7DEB730
:100E1000A3970FB6F894DEBF0FBECDBF8091F2004E
:100E200080618EBB90E89093F2008EB38093F200C5
:100E30008091F20084608EBB9093F2008EB3809319
:100E4000F20081EF815011F00000FCCF8091F200A0
:100E50008F7980628EBB80E88093F2009EB390937E
:100E6000F2008093610010926100789484B58260F2
:100E700084BD84B5816084BD85B5826085BD85B53E
:100E8000816085BD10928100809181008160809396
:100E90008100809181008061809381008091800039
:100EA0008260809380008FE3809387009FEF909310
:100EB00086008091B10084608093B1008091B00081
:100EC00082608093B0008091B00081608093B00018
:100ED00080917000816080937000809191008160AA
:100EE0008093910080919100806180939100809126
:100EF00090008260809390009093960080917A0099
:100F0000846080937A0080917A00826080937A0076
:100F100080917A00816080937A0080917A00806865
:100F200080937A001092C1000E947C05E0916702D4
:100F3000F091680282E08083E0916302F0916402A4
:100F40001082E0916502F091660280E18083109248
:100F50006F02E0916B02F0916C0286E08083E09179
:100F60006902F0916A02808180618083E091690268
:100F7000F0916A02808188608083E0916902F0913B
:100F80006A02808180688083E0916902F0916A0240
:100F900080818F7D808361E087E00E94BB0161E0FA
:100FA00088E00E94BB01CE0101966C0184E0A82E6E
:100FB000B12C90E0692E90E0792E0091560261E00C
:100FC000011101C060E087E00E949B011091550271
:100FD00061E0111101C060E088E00E949B0187E59B
:100FE00092E00E94EC00892B09F481C28BE1EBE1D5
:100FF000F1E0D60101900D928A95E1F7F60190E0BB
:1010000080E0BF016C197D092191222341F0269FC8
:10101000A001279F500D112484279527F2CF8C3DE6
:101020009B4009F064C20E94DC05853509F48CC13F
:1010300058F5813409F4C2C060F4803309F49DC0CE
:10104000813309F49FC0803259F41F5F1093550219
:101050001EC2853409F444C168F4823409F4C3C063
:101060001F5F109355020E94DC05803209F00FC209
:1010700082E127C2803509F438C1813589F71092A1
:1010800055020E948A057BC0843609F471C108F5B7
:10109000803609F468C1813609F467C1863501F7E5
:1010A00084E090E00E940F0680915201803309F0A5
:1010B000A6C28091530181110AC0809154018130F0
:1010C00009F499C208F495C2823009F496C28FEFF0
:1010D00085C0853709F497C298F4843709F60E94D1
:1010E000DC05882E0E94DC05F82E0E94DC05082F06
:1010F0000E94DC05803209F406C20E948205F7C115
:10110000893709F44DC08A3709F0AACF0E94DC055F
:10111000803209F09ACF8AE00E94BA0241E068EA80
:1011200081E00E946A0384E00E94BA0260E081E0EC
:101130000E94E602E82E60E080E00E94E602F82EBF
:1011400060E080E00E94E602082F61E080E00E94FB
:10115000E602182F84E00E94BA0284E10E94760120
:101160008E2D0E9476018F2D0E947601802F0E9485
:101170007601812F0E94760111C0109255020E94C3
:10118000FE05B5C10E94DC05803209F05ECF84E126
:101190000E94760180E191E00E94470680E191C1C2
:1011A0000E94DC05803209F050CF84E10E94760174
:1011B000C6010E94470688E191E0EECF0E94DC055F
:1011C000813879F020F4803841F080E007C082381F
:1011D00021F08339D1F783E501C083E00E94E70560
:1011E00086C186E0FBCF84E190E00E940F068091EB
:1011F000520180933F01809153018093400180917F
:101200005401809341018091550180934201809166
:10121000560180934301809157018093440180914E
:101220005801809345018091590180934601809136
:101230005A018093470180915C0190E0982F8827A4
:1012400020915D01820F911D909349018093480187
:1012500080915E0190E0982F882720915F01820F96
:10126000911D90934B0180934A018091600190E021
:10127000982F882720916101820F911D90934D0135
:1012800080934C018091620190E0B0E0A0E0BA2F21
:10129000A92F982F882720916301820F911DA11DEE
:1012A000B11DDC01992788274091640150E0542F3B
:1012B0004427052E000C660B770B840F951FA61F85
:1012C000B71F20916501820F911DA11DB11D809353
:1012D0004E0190934F01A0935001B09351014FCF15
:1012E00085E090E00E940F064ACF002339F104E028
:1012F00010E061E088E00E949B016EE170E080E018
:1013000090E00E94880260E088E00E949B016EE10C
:1013100070E080E090E00E9488020150110949F7D6
:101320008091560281112BCF0E94DC05803209F09A
:10133000A9C084E10E94760181E1C3C080E00E94DF
:10134000B50510925402ECCF0E94DC05182F0E94C4
:10135000DC0590E0982F8827810F911D9093530210
:10136000809352020CCF0E94DC050E94DC0507CF5F
:101370008091540281110AC0109255020E948A0580
:1013800081E00E94B50581E0809354020E94DC0553
:10139000E82EF12CFE2CEE240E94DC05E80EF11C58
:1013A0000E94DC05863409F074C0C7010E940F0654
:1013B0000E94DC05803209F065C084E10E9476015C
:1013C000009152021091530217FF02C00F5F1F4F8E
:1013D00015950795B80180E00E94E803B80184E8FC
:1013E0000E94E803B80186E80E94E80332E5832EF4
:1013F00031E0932EC401825591408E159F059CF5D6
:10140000F4012080318042805380F4E08F0E911CE3
:1014100040E062EB81E00E946A0340E0622D80E0E0
:101420000E946A0340E0632D80E00E946A0340E06E
:10143000642D80E00E946A0341E0652D80E00E94F7
:101440006A0384E00E94BA02B80186E80E94E803B9
:10145000B80186EC0E94E803B80186E80E94E80320
:101460000F5F1F4FC7CF01501109B80182E80E94DA
:10147000E803B80180E80E94E803B80180E00E9418
:10148000E8038CCE809155028F5F8093550285E1F1
:1014900018C0853409F050CF80914C0190914D01D6
:1014A0008E159F0588F4809155028F5F80935502B9
:1014B00011E10E94DC058032C1F484E10E947601D2
:1014C000812F0E94760113C021E2E216F10444F05C
:1014D00080E290E00E94250680E2E81AF108F4CF4D
:1014E000C7010E94250610E1E4CF0E948205611425
:1014F000710409F462CD0E94FA00882309F45DCDDD
:101500000E9400005ACD912C982C88248F0C911C9D
:1015100084E10E947601063409F05CC00091520219
:101520001091530217FF02C00F5F1F4F15950795CB
:1015300061E070E080E00E94E803F12CE12CE81407
:10154000F9040CF044C0C70183709927892B71F509
:10155000B80180EC0E94E803B80180EE0E94E80325
:1015600041E06AEA81E00E946A0360E081E00E9453
:10157000E6028C8F60E080E00E94E6028D8F60E0E2
:1015800080E00E94E6028E8F61E080E00E94E60229
:101590008F8F84E00E94BA028C8D9D8DAE8DBF8DA1
:1015A00088A399A3AAA3BBA30F5F1F4FC701B501CF
:1015B0000E94540BE0E2F0E0EC0FFD1FE80FF91F72
:1015C00080810E9476019FEFE91AF90AB8CF61E0A5
:1015D00070E054CF053409F0AFCE10E000E0801683
:1015E000910609F4DBCD8FEF0E9476010F5F1F4F4C
:1015F000F6CF8EE1F3CD85E9F1CD8FE0EFCD803FE1
:1016000009F065CDE2CD0E94DC05803209F01DCDE8
:1016100084E10E9476018EE10E94760185E90E94B4
:1016200076018AE0A7CDE7E5F2E01382128288EE28
:1016300093E0A0E0B0E084839583A683B78384E041
:1016400091E09183808385EC90E09587848784EC9A
:1016500090E09787868780EC90E0918B808B81EC7F
:1016600090E0938B828B82EC90E0958B848B86EC60
:1016700090E0978B868B118E128E138E148E0895A8
:10168000AA1BBB1B51E107C0AA1FBB1FA617B707A8
:1016900010F0A61BB70B881F991F5A95A9F78095C4
:1016A0009095BC01CD01089597FB072E16F4009488
:1016B00007D077FD09D00E94400B07FC05D03EF40F
:1016C000909581959F4F0895709561957F4F0895EE
:1016D000EE0FFF1F0590F491E02D0994F894FFCFD1
:1016E000000000002F019400EC00C100DE007B012F
:1016F00041565220495350000D0A007B22617574F7
:10170000686F7222203A202262726F746865725F7D
:0617100079616E227D00EC
:00000001FF
